{
  "contractName": "CarbonCredit",
  "abi": [
    {
      "constant": true,
      "inputs": [
        {
          "name": "",
          "type": "address"
        }
      ],
      "name": "participants",
      "outputs": [
        {
          "name": "carbon_credits",
          "type": "uint256"
        },
        {
          "name": "emmisions",
          "type": "uint256"
        },
        {
          "name": "balance",
          "type": "uint256"
        },
        {
          "name": "name",
          "type": "string"
        }
      ],
      "payable": false,
      "stateMutability": "view",
      "type": "function",
      "signature": "0x09e69ede"
    },
    {
      "constant": true,
      "inputs": [],
      "name": "seller_market",
      "outputs": [
        {
          "name": "",
          "type": "address"
        }
      ],
      "payable": false,
      "stateMutability": "view",
      "type": "function",
      "signature": "0x12dae58a"
    },
    {
      "constant": true,
      "inputs": [],
      "name": "exchange_rate",
      "outputs": [
        {
          "name": "",
          "type": "uint256"
        }
      ],
      "payable": false,
      "stateMutability": "view",
      "type": "function",
      "signature": "0x171ef0b2"
    },
    {
      "constant": true,
      "inputs": [
        {
          "name": "",
          "type": "uint256"
        }
      ],
      "name": "exchange_buy",
      "outputs": [
        {
          "name": "volume",
          "type": "uint256"
        },
        {
          "name": "buyer",
          "type": "address"
        }
      ],
      "payable": false,
      "stateMutability": "view",
      "type": "function",
      "signature": "0x5780af8d"
    },
    {
      "constant": true,
      "inputs": [],
      "name": "buyer_market",
      "outputs": [
        {
          "name": "",
          "type": "address"
        }
      ],
      "payable": false,
      "stateMutability": "view",
      "type": "function",
      "signature": "0x8e60d30b"
    },
    {
      "constant": true,
      "inputs": [],
      "name": "num_buy_orders",
      "outputs": [
        {
          "name": "",
          "type": "uint256"
        }
      ],
      "payable": false,
      "stateMutability": "view",
      "type": "function",
      "signature": "0x942849b5"
    },
    {
      "constant": true,
      "inputs": [],
      "name": "emmision_limit",
      "outputs": [
        {
          "name": "",
          "type": "uint256"
        }
      ],
      "payable": false,
      "stateMutability": "view",
      "type": "function",
      "signature": "0x9ec63ddb"
    },
    {
      "constant": true,
      "inputs": [
        {
          "name": "",
          "type": "uint256"
        }
      ],
      "name": "exchange_sell",
      "outputs": [
        {
          "name": "sell_price",
          "type": "uint256"
        },
        {
          "name": "volume",
          "type": "uint256"
        },
        {
          "name": "seller",
          "type": "address"
        }
      ],
      "payable": false,
      "stateMutability": "view",
      "type": "function",
      "signature": "0xb4caa49a"
    },
    {
      "constant": true,
      "inputs": [],
      "name": "num_sell_orders",
      "outputs": [
        {
          "name": "",
          "type": "uint256"
        }
      ],
      "payable": false,
      "stateMutability": "view",
      "type": "function",
      "signature": "0xe7332116"
    },
    {
      "constant": true,
      "inputs": [],
      "name": "admin",
      "outputs": [
        {
          "name": "",
          "type": "address"
        }
      ],
      "payable": false,
      "stateMutability": "view",
      "type": "function",
      "signature": "0xf851a440"
    },
    {
      "inputs": [],
      "payable": false,
      "stateMutability": "nonpayable",
      "type": "constructor",
      "signature": "constructor"
    },
    {
      "constant": false,
      "inputs": [
        {
          "name": "participant_address",
          "type": "address"
        },
        {
          "name": "balance",
          "type": "uint256"
        },
        {
          "name": "name",
          "type": "string"
        }
      ],
      "name": "initialize_participants",
      "outputs": [],
      "payable": false,
      "stateMutability": "nonpayable",
      "type": "function",
      "signature": "0x65da6bd3"
    },
    {
      "constant": false,
      "inputs": [
        {
          "name": "name",
          "type": "string"
        },
        {
          "name": "emmisions",
          "type": "uint256"
        },
        {
          "name": "balance_change",
          "type": "uint256"
        }
      ],
      "name": "update_participant",
      "outputs": [],
      "payable": false,
      "stateMutability": "nonpayable",
      "type": "function",
      "signature": "0xb69d3f01"
    },
    {
      "constant": false,
      "inputs": [
        {
          "name": "seller",
          "type": "address"
        },
        {
          "name": "volume",
          "type": "uint256"
        },
        {
          "name": "sell_price",
          "type": "uint256"
        }
      ],
      "name": "make_sell_order",
      "outputs": [],
      "payable": false,
      "stateMutability": "nonpayable",
      "type": "function",
      "signature": "0x1c379acf"
    },
    {
      "constant": false,
      "inputs": [
        {
          "name": "buyer",
          "type": "address"
        },
        {
          "name": "volume",
          "type": "uint256"
        }
      ],
      "name": "make_buy_order",
      "outputs": [],
      "payable": false,
      "stateMutability": "nonpayable",
      "type": "function",
      "signature": "0x8e11125f"
    },
    {
      "constant": false,
      "inputs": [
        {
          "name": "participant_address",
          "type": "address"
        }
      ],
      "name": "issue_credits",
      "outputs": [],
      "payable": false,
      "stateMutability": "nonpayable",
      "type": "function",
      "signature": "0x5e690c3e"
    },
    {
      "constant": false,
      "inputs": [
        {
          "name": "participant_address",
          "type": "address"
        },
        {
          "name": "volume",
          "type": "uint256"
        }
      ],
      "name": "force_to_buy",
      "outputs": [],
      "payable": false,
      "stateMutability": "nonpayable",
      "type": "function",
      "signature": "0x06090ee4"
    },
    {
      "constant": false,
      "inputs": [],
      "name": "match_order",
      "outputs": [],
      "payable": false,
      "stateMutability": "nonpayable",
      "type": "function",
      "signature": "0x143e69e2"
    }
  ],
  "bytecode": "0x60806040526000600755600060085534801561001a57600080fd5b5060028054600160a060020a0319163317905560646000556005600155610f2a806100466000396000f3fe6080604052600436106100f05763ffffffff7c010000000000000000000000000000000000000000000000000000000060003504166306090ee481146100f557806309e69ede1461013057806312dae58a146101f0578063143e69e214610221578063171ef0b2146102365780631c379acf1461025d5780635780af8d1461029c5780635e690c3e146102e757806365da6bd31461031a5780638e11125f146103e25780638e60d30b1461041b578063942849b5146104305780639ec63ddb14610445578063b4caa49a1461045a578063b69d3f01146104ab578063e733211614610563578063f851a44014610578575b600080fd5b34801561010157600080fd5b5061012e6004803603604081101561011857600080fd5b50600160a060020a03813516906020013561058d565b005b34801561013c57600080fd5b506101636004803603602081101561015357600080fd5b5035600160a060020a03166105e7565b6040518085815260200184815260200183815260200180602001828103825283818151815260200191508051906020019080838360005b838110156101b257818101518382015260200161019a565b50505050905090810190601f1680156101df5780820380516001836020036101000a031916815260200191505b509550505050505060405180910390f35b3480156101fc57600080fd5b50610205610695565b60408051600160a060020a039092168252519081900360200190f35b34801561022d57600080fd5b5061012e6106a4565b34801561024257600080fd5b5061024b6108e7565b60408051918252519081900360200190f35b34801561026957600080fd5b5061012e6004803603606081101561028057600080fd5b50600160a060020a0381351690602081013590604001356108ed565b3480156102a857600080fd5b506102c6600480360360208110156102bf57600080fd5b5035610992565b60408051928352600160a060020a0390911660208301528051918290030190f35b3480156102f357600080fd5b5061012e6004803603602081101561030a57600080fd5b5035600160a060020a03166109b4565b34801561032657600080fd5b5061012e6004803603606081101561033d57600080fd5b600160a060020a038235169160208101359181019060608101604082013564010000000081111561036d57600080fd5b82018360208201111561037f57600080fd5b803590602001918460018302840111640100000000831117156103a157600080fd5b91908080601f016020809104026020016040519081016040528093929190818152602001838380828437600092019190915250929550610aa5945050505050565b3480156103ee57600080fd5b5061012e6004803603604081101561040557600080fd5b50600160a060020a038135169060200135610bf1565b34801561042757600080fd5b50610205610c7f565b34801561043c57600080fd5b5061024b610c8e565b34801561045157600080fd5b5061024b610c94565b34801561046657600080fd5b506104846004803603602081101561047d57600080fd5b5035610c9a565b604080519384526020840192909252600160a060020a031682820152519081900360600190f35b3480156104b757600080fd5b5061012e600480360360608110156104ce57600080fd5b8101906020810181356401000000008111156104e957600080fd5b8201836020820111156104fb57600080fd5b8035906020019184600183028401116401000000008311171561051d57600080fd5b91908080601f0160208091040260200160405190810160405280939291908181526020018383808284376000920191909152509295505082359350505060200135610cc4565b34801561056f57600080fd5b5061024b610e4e565b34801561058457600080fd5b50610205610e54565b600254600160a060020a031633146105a457600080fd5b60028054600160a060020a0390811660009081526003602052604090208054840190559054604b916105d8911683836108ed565b6105e28383610bf1565b505050565b6003602081815260009283526040928390208054600180830154600280850154968501805489519481161561010002600019011691909104601f8101879004870284018701909852878352929690959491929183018282801561068b5780601f106106605761010080835404028352916020019161068b565b820191906000526020600020905b81548152906001019060200180831161066e57829003601f168201915b5050505050905084565b600a54600160a060020a031681565b600254600160a060020a031633146106bb57600080fd5b60005b6007548110156108e457600081815260066020526040812060018101546009805473ffffffffffffffffffffffffffffffffffffffff1916600160a060020a0390921691909117905580546004190190555b600082815260066020526040812054118061072c575060085481105b156108db5760008181526005602081815260408084206002810154600a805473ffffffffffffffffffffffffffffffffffffffff1916600160a060020a039092169190911790558685526006835290842054938590529190526001015410610833576000828152600660208181526040808420805486865260058452828620805460098054600160a060020a039081168a5260038852868a20600290810180549490960290930390945584549054841689528589208054909101905583548254600a805486168b52878b20909301805491909202019055835490549092168752928620805491909103905580546001909201805492909203909155858452919052556108d3565b6000818152600560208181526040808420600181018054825460098054600160a060020a039081168a5260038852868a20600290810180549490950290930390935583549054831689528589208054909101905582549354600a805484168a52868a209092018054919095020190935581549254168652828620805492909203909155805487865260068452918520805492909203909155848452919052555b600101610710565b506001016106be565b50565b60005481565b33600160a060020a038416148061090e5750600254600160a060020a031633145b151561091957600080fd5b604080516060810182529182526020808301938452600160a060020a0394851683830190815260088054600090815260059093529290912092518355925160018084019190915592516002909201805473ffffffffffffffffffffffffffffffffffffffff191692909416919091179092558154019055565b60066020526000908152604090208054600190910154600160a060020a031682565b600254600160a060020a031633146109cb57600080fd5b60018054600160a060020a0383166000908152600360205260409020909101541015610a2957600160a060020a03811660009081526003602052604081206001808201805490849055925490546002029290920390910290556108e4565b600160a060020a0381166000908152600360205260409020600190810154905410156108e4576000805460018054600160a060020a03851684526003602052604090932001549190910302610a7e828261058d565b506000805460018054600160a060020a038516845260036020526040842092028255015550565b600254600160a060020a03163314610b1e57604080517f08c379a000000000000000000000000000000000000000000000000000000000815260206004820152601360248201527f4f6e6c792061646d696e2063616e206164642e00000000000000000000000000604482015290519081900360640190fd5b600160a060020a038316600090815260036020818152604083206001810193909355600283018590556101f483558351610b5f939092019190840190610e63565b50826004826040518082805190602001908083835b60208310610b935780518252601f199092019160209182019101610b74565b51815160209384036101000a60001901801990921691161790529201948552506040519384900301909220805473ffffffffffffffffffffffffffffffffffffffff1916600160a060020a0394909416939093179092555050505050565b33600160a060020a0383161480610c125750600254600160a060020a031633145b1515610c1d57600080fd5b604080518082018252918252600160a060020a039283166020808401918252600780546000908152600690925292902092518355516001928301805473ffffffffffffffffffffffffffffffffffffffff191691909416179092558154019055565b600954600160a060020a031681565b60075481565b60015481565b600560205260009081526040902080546001820154600290920154909190600160a060020a031683565b600254600160a060020a03163314610d3d57604080517f08c379a000000000000000000000000000000000000000000000000000000000815260206004820152601360248201527f4f6e6c792061646d696e2063616e206164642e00000000000000000000000000604482015290519081900360640190fd5b81600360006004866040518082805190602001908083835b60208310610d745780518252601f199092019160209182019101610d55565b51815160209384036101000a60001901801990921691161790529201948552506040805194859003820190942054600160a060020a031685528481019590955250509081016000908120600101939093555185518493600393909260049289928291908401908083835b60208310610dfd5780518252601f199092019160209182019101610dde565b51815160209384036101000a60001901801990921691161790529201948552506040805194859003820190942054600160a060020a0316855284019490945250016000206002019190915550505050565b60085481565b600254600160a060020a031681565b828054600181600116156101000203166002900490600052602060002090601f016020900481019282601f10610ea457805160ff1916838001178555610ed1565b82800160010185558215610ed1579182015b82811115610ed1578251825591602001919060010190610eb6565b50610edd929150610ee1565b5090565b610efb91905b80821115610edd5760008155600101610ee7565b9056fea165627a7a7230582054366e09dc41e673d4ad8ff88510b85aa15b0e6617ded7aa34dfe8b981c39fd90029",
  "source": "// SPDX-License-Identifier: GPL-3.0\npragma solidity ^0.5.0;\n\n/// @title Voting with delegation.\ncontract CarbonCredit {\n\n   // This declares a new type which represents\n   // participants of an emmission market.\n\n\n    uint public exchange_rate;\n    uint public emmision_limit;\n\n    struct Participant {\n        uint carbon_credits;\n        uint emmisions;\n        uint balance;\n        string name;\n    }\n\n    struct Sell_order {\n        uint sell_price;\n        uint volume;\n        address seller;\n    }\n\n    struct Buy_order {\n        uint volume;\n        address buyer;\n    }\n\n  //The admin is responsible for issuing Carbon Credits, Rewarding low\n  // emmisions, Punishing high emmisions and Managing the exchange.\n\n  address public admin;\n\n\n\n   // This declares a state variable that\n   // stores a `participant` struct for each possible address.\n    mapping(address => Participant) public participants;\n    mapping(string => address) private Names;\n\n    // A dynamically-sized array of 'buy' and 'sell' limit orders.\n    //Sell_order[] public exchange_sell;\n    //Buy_order[] public exchange_buy;\n    mapping(uint => Sell_order) public exchange_sell;\n    mapping(uint => Buy_order) public exchange_buy;\n\n    uint public num_buy_orders = 0;\n    uint public num_sell_orders = 0;\n\n    constructor() public {\n        admin = msg.sender;\n        exchange_rate = 100;\n        emmision_limit = 5;\n    }\n\n    // To be called to initialize a participant and assign emmisions and balance\n\n    function initialize_participants(address participant_address, uint balance, string memory name) public {\n        require(\n            msg.sender == admin,\n            \"Only admin can add.\"\n        );\n        participants[participant_address].emmisions = 0;\n        participants[participant_address].balance = balance;\n        participants[participant_address].carbon_credits = 500;\n        participants[participant_address].name = name;\n        Names[name] = participant_address;\n    }\n\n\n    // End of year updates to emmisions of a participant\n    function update_participant(string memory name, uint emmisions, uint balance_change) public{\n        require(\n            msg.sender == admin,\n            \"Only admin can add.\"\n        );\n\n        participants[Names[name]].emmisions = emmisions;\n        participants[Names[name]].balance = balance_change;\n    }\n\n    function make_sell_order(address seller, uint volume, uint sell_price) public{\n\n            require(\n                msg.sender == seller || msg.sender == admin\n            );\n            exchange_sell[num_sell_orders] = Sell_order({\n                sell_price: sell_price,\n                volume: volume,\n                seller: seller\n             });\n            num_sell_orders += 1;\n\n            // exchange_sell.push(Sell_order({\n            //     sell_price: sell_price,\n            //     volume: volume,\n            //     seller: seller\n            // })\n            //);\n    }\n\n    function make_buy_order(address buyer, uint volume) public{\n\n        require(\n                msg.sender == buyer || msg.sender == admin\n            );\n        exchange_buy[num_buy_orders] = Buy_order({\n            buyer: buyer,\n            volume: volume\n          });\n\n          num_buy_orders += 1;\n\n        // exchange_buy.push(Buy_order({\n        //     buyer: buyer,\n        //     volume: volume\n        //   })\n        // );\n    }\n\n    // To be called externally and periodically at the end of the year\n\n  function issue_credits(address participant_address) public{\n\n    require(\n      msg.sender == admin\n    );\n    if (participants[participant_address].emmisions < emmision_limit){\n      uint emmisions = participants[participant_address].emmisions;\n      participants[participant_address].emmisions = 0;\n\n      // Mint new coins\n      participants[participant_address].carbon_credits = (2 * emmision_limit - emmisions) * exchange_rate;\n    }\n    else if (emmision_limit < participants[participant_address].emmisions){\n      uint volume;\n      volume = (participants[participant_address].emmisions - emmision_limit) * exchange_rate;\n      force_to_buy(participant_address, volume);\n      participants[participant_address].carbon_credits = emmision_limit * exchange_rate;\n      participants[participant_address].emmisions = 0;\n    }\n  }\n\n  function force_to_buy(address participant_address, uint volume) public{\n\n    require(\n      msg.sender == admin\n    );\n    participants[admin].carbon_credits += volume;\n    uint sell_price = 75;\n    make_sell_order(admin, volume, sell_price);\n\n    make_buy_order(participant_address, volume);\n  }\n\n  //Order Matching\n  address public buyer_market;\n  address public seller_market;\n\n  function match_order() public{\n\n      require(\n      msg.sender == admin\n    );\n\n\n    // Sort sell array: Sell -> Lowest price first if volume > 0\n\n    for (uint i = 0; i < num_buy_orders; i++)  {\n\n        buyer_market = exchange_buy[i].buyer;\n        exchange_buy[i].volume -= 5;\n        uint j = 0;\n\n        while (exchange_buy[i].volume > 0 || j < num_sell_orders){\n            seller_market = exchange_sell[j].seller;\n            if (exchange_sell[j].volume >= exchange_buy[i].volume){\n                participants[buyer_market].balance -= exchange_sell[j].sell_price * exchange_buy[i].volume;\n                participants[buyer_market].carbon_credits += exchange_buy[i].volume;\n                participants[seller_market].balance += exchange_sell[j].sell_price * exchange_buy[i].volume;\n                participants[seller_market].carbon_credits -= exchange_buy[i].volume;\n                exchange_sell[j].volume -= exchange_buy[i].volume;\n                exchange_buy[i].volume = 0;\n            }\n\n            else {\n                participants[buyer_market].balance -= exchange_sell[j].sell_price * exchange_sell[j].volume;\n                participants[buyer_market].carbon_credits += exchange_sell[j].volume;\n                participants[seller_market].balance += exchange_sell[j].sell_price * exchange_sell[j].volume;\n                participants[seller_market].carbon_credits -= exchange_sell[j].volume;\n                exchange_buy[i].volume -= exchange_sell[j].volume;\n                exchange_sell[j].volume = 0;\n            }\n\n            j += 1;\n\n            }\n        }\n\n  }\n\n\n}\n\n    ",
  "sourcePath": "/home/broda/Desktop/eth-todo-list/contracts/CarbonCredit.sol",
  "compiler": {
    "name": "solc",
    "version": "0.5.0+commit.1d4f565a.Emscripten.clang"
  },
  "schemaVersion": "3.0.1",
  "updatedAt": "2020-12-16T01:33:32.030Z",
  "devdoc": {
    "methods": {},
    "title": "Voting with delegation."
  },
  "userdoc": {
    "methods": {}
  }
}